:020000040800F2
:10000000000002204D430008110E0008170E0008E2
:100010001D0E0008230E0008290E00080000000035
:100020000000000000000000000000002F0E00088B
:100030003D0E0008000000004B0E0008590E00089D
:100040009D4300089D4300089D4300089D43000810
:100050009D4300089D4300089D4300089D43000800
:100060009D4300089D4300089D4300089D430008F0
:100070009D4300089D4300089D4300089D430008E0
:100080009D4300089D4300089D43000800000000B8
:100090000000000000000000000000009D43000878
:1000A0009D4300089D4300089D4300089D430008B0
:1000B0009D4300089D4300089D4300089D430008A0
:1000C0009D4300089D4300089D4300089D43000890
:1000D0009D4300089D4300089D4300080000000068
:1000E0009D4300089D4300089D4300080000000058
:1000F0000000000000000000000000009D43000818
:10010000000000009D4300089D4300089D43000837
:1001100000000000000000000000000000000000DF
:100120009D4300089D4300089D4300089D4300082F
:100130009D430008000000000000000000000000D7
:100140000000000000000000000000009D430008C7
:100150009D4300089D4300089D4300089D430008FF
:100160009D4300089D4300080000000000000000BF
:10017000000000000000000000000000000000007F
:10018000000000009D430008000000000000000087
:080190009D4300089D43000897
:1001A00010B5054C237833B9044B13B10448AFF3B1
:1001B00000800123237010BDB40000200000000067
:1001C000D857000808B5034B1BB103490348AFF3E8
:1001D000008008BD00000000B8000020D8570008CB
:1001E000034613F8012B002AFBD1181A0138704777
:1001F00001F0FF01102A2BDB10F0070F08D010F8D8
:10020000013B013A8B422DD010F0070F42B3F6D1DB
:10021000F0B441EA012141EA014122F007047FF0F4
:1002200000070023F0E80256083C85EA010586EA4B
:10023000010685FA47F5A3FA87F586FA47F6A5FA87
:1002400087F68EB9EED1F0BC01F0FF0102F0070293
:1002500032B110F8013B013A83EA010313B1F8D13E
:100260000020704701387047002D06BF354603381F
:10027000073815F0010F07D1013015F4807F02BF58
:10028000013015F4C03F0130F0BC0138704700BFA9
:1002900053B94AB9002908BF00281CBF4FF0FF31ED
:1002A0004FF0FF3000F07AB9ADF1080C6DE904CEE3
:1002B00000F006F8DDF804E0DDE9022304B0704741
:1002C0002DE9F0478C460D460446089E002B51D17F
:1002D0008A4217466DD9B2FA82FEBEF1000F0BD0EA
:1002E000CEF1200C01FA0EF520FA0CFC02FA0EF702
:1002F0004CEA050C00FA0EF44FEA174A250CBCFB39
:10030000FAF81FFA87F90AFB18CC45EA0C4508FBF6
:1003100009F3AB420AD9ED1908F1FF3280F02381CD
:10032000AB4240F22081A8F102083D44ED1AA4B28C
:10033000B5FBFAF00AFB105544EA054400FB09F945
:10034000A14509D9E41900F1FF3380F00A81A145E4
:1003500040F2078102383C44A4EB090440EA08401B
:100360000021002E61D024FA0EF400233460736063
:10037000BDE8F0878B4207D9002E54D0002186E8D3
:1003800021000846BDE8F087B3FA83F1002940F068
:100390008E80AB4202D3824200F2FA80841A65EB6F
:1003A00003050120AC46002E3FD086E81010BDE8C2
:1003B000F08712B90127B7FBF2F7B7FA87FEBEF153
:1003C000000F34D1EB1B3A0C1FFA87FC0121B3FB61
:1003D000F2F8250C02FB183345EA03450CFB08F341
:1003E000AB4207D9ED1908F1FF3002D2AB4200F25F
:1003F000D1808046ED1AA3B2B5FBF2F002FB105596
:1004000043EA05440CFB00FCA44507D9E41900F1BC
:10041000FF3302D2A44500F2B8801846A4EB0C04C6
:1004200040EA08409DE731463046BDE8F087CEF10E
:10043000200405FA0EF307FA0EF720FA04F83A0C36
:1004400025FA04F448EA0308B4FBF2F14FEA184530
:1004500002FB11441FFA87FC45EA044501FB0CF33B
:10046000AB4200FA0EF409D9ED1901F1FF3080F02A
:100470008A80AB4240F2878002393D44EB1A1FFA72
:1004800088F5B3FBF2F002FB103345EA034500FBAD
:100490000CF3AB4207D9ED1900F1FF386FD2AB4234
:1004A0006DD902383D44EB1A40EA01418FE7C1F1B2
:1004B000200722FA07F88B4005FA01F448EA030303
:1004C00020FA07FE4FEA134CFD404EEA040EB5FB3E
:1004D000FCF94FEA1E440CFB19551FFA83F844EA55
:1004E000054509FB08F4AC4202FA01F200FA01FAF0
:1004F00008D9ED1809F1FF3043D2AC4241D9A9F136
:1005000002091D442D1B1FFA8EFEB5FBFCF00CFBEF
:1005100010554EEA054400FB08F8A04507D9E41839
:1005200000F1FF3529D2A04527D902381C4440EA02
:100530000940A4EB0804A0FB02894C45C6464D4681
:1005400015D312D056B1BAEB0E0364EB050404FACE
:1005500007F7CB401F43CC40376074600021BDE8F3
:10056000F0871846F8E69046E0E6C245EAD2B8EBD6
:10057000020E69EB03050138E4E72846D7E7404659
:1005800091E78146BEE7014678E702383C4445E7FB
:10059000084608E7A8F102083D442BE7704700BF72
:1005A00080B500AF00224021024800F06BFF00BF81
:1005B00080BD00BF0004024080B500AF0122402191
:1005C000024800F05FFF00BF80BD00BF0004024092
:1005D00080B586B002AF0346FB710023FB7307F1C1
:1005E0000F02F91D0A2300930123034801F007FCC1
:1005F00000BF1037BD4680BD8409002080B584B09F
:1006000002AF0023FB71FF23BB71FA1DB91D0A2342
:1006100000930123034801F0F2FBFB7918460837E9
:10062000BD4680BD8409002090B585B000AF0F4B5A
:100630003C460FCB84E80F000D490E4803F060FAEA
:100640000D490E4803F038FA3B461946012003F0E5
:1006500083FA0346B3F1FF3F03D1094804F006F8DB
:10066000FEE700BF1437BD4690BD00BF0C58000820
:10067000D1050008FD050008B9050008A10500081E
:10068000F057000880B584B002AF00F001FC00F024
:10069000B7F800F073F900F011F900F045F9FFF731
:1006A000C3FF474800F036FA464803F0DFFF4648EC
:1006B00003F0CCFD4FF47A7000F05CFC00F0A0F980
:1006C000424803F0D3FF002350220121002002F012
:1006D00043FD0346DAB23E4B1A703D4B1B78002BAC
:1006E00006D03B4B1B7819463A4803F04BFF02E01B
:1006F000394803F0BBFF002002F0B0FE0346DAB237
:10070000334B1A70324B1B78012B06D0304B1B78C1
:100710001946324803F036FF06E0314803F0A6FFE1
:1007200002E0022000F026FC4FF4427002F0C8FA0A
:100730000346142BF5D02B4803F098FF4FF442707A
:1007400002F0BEFA0346172B02D0274803F08EFFB3
:100750003B1D1A460421002003F04AF83B79194654
:100760007B791A46BB791846FB79009303461F48EC
:1007700003F008FF1E4B1B781A461E491E4804F062
:100780003BF81D48FFF72CFD03469BB21A461A4959
:10079000002002F033FF002002F0BAFE174803F0F9
:1007A00065FF002002F0ECFD4FF47A7000F0E2FBF0
:1007B0000F4B1B780133DAB20D4B1A7080E700BF84
:1007C000DC0900201C580008000000202C580008FC
:1007D000810900204058000860580008805800082F
:1007E000A0580008B0580008C4580008DC58000899
:1007F00080090020F0580008000100200C59000872
:1008000080B594B000AF07F12003302200211846D4
:1008100003F003FE07F10C0300221A605A609A608D
:10082000DA601A610023BB60224A224B1B6C43F042
:10083000805313641F4B1B6C03F08053BB60BB6879
:1008400000237B601C4A1C4B1B6843F4404313602D
:10085000194B1B6803F440437B607B6802233B62B7
:100860000123FB6210233B630023BB6307F12003DA
:10087000184600F021FE0346002B01D000F042F99B
:100880000F23FB6000233B6100237B610023BB61DE
:100890000023FB6107F10C030021184601F07CF8EE
:1008A0000346002B01D000F02DF900BF5037BD46A4
:1008B00080BD00BF003802400070004080B500AF2E
:1008C000174B184A1A60164B4FF482725A60144B39
:1008D00000229A60124B0022DA60114B00221A614A
:1008E0000F4B00225A610E4B4FF400729A610C4B71
:1008F0000022DA610A4B00221A62094B00225A6276
:10090000074B00229A62064B0A22DA62044801F081
:1009100013FA0346002B01D000F0F4F800BF80BDAD
:10092000840900200030014080B500AF114B124A0D
:100930001A60104B4FF4E1325A600E4B00229A605D
:100940000C4B0022DA600B4B00221A61094B0C227F
:100950005A61084B00229A61064B0022DA61054871
:1009600001F09AFC0346002B01D000F0CBF800BF49
:1009700080BD00BFDC0900200044004080B588B085
:1009800000AF07F10C0300221A605A609A60DA6027
:100990001A610023BB60184A174B1B6B43F001031D
:1009A0001363154B1B6B03F00103BB60BB68002393
:1009B0007B60114A104B1B6B43F0020313630E4B19
:1009C0001B6B03F002037B607B68002240210B4815
:1009D00000F058FD4023FB6001233B6100237B6155
:1009E0000023BB6107F10C031946044800F0C8FB63
:1009F00000BF2037BD4680BD0038024000040240E1
:100A0000F0B593B004AF384803F060FC364B1B7868
:100A10001D46354B5B781E46334B9B781A46324B4E
:100A2000DB781946304B1B791C462F4B5B79381D00
:100A3000039302940191009233462A462B4903F016
:100A4000DBFE391D0A231E22294801F072FC264BC9
:100A50009B791946244BDB791C46234B1B7A1A469B
:100A6000214B5B7A381D0193009223460A462149A7
:100A700003F0C2FE391D0A231E221D4801F059FC55
:100A8000194B9B7A1946184BDB7A1A46164B1B7B7F
:100A90001846154B5B7B00930346174803F072FD25
:100AA000114B9B7B1946104BDB7B1A460E4B1B7C74
:100AB00018460D4B5B7C00930346104803F062FD23
:100AC000094B9B7C1946084BDB7C1A46064B1B7D69
:100AD0001846054B5B7D00930346094803F052FD21
:100AE00000BF3C37BD46F0BD000000202059000883
:100AF000DC090020505900086C590008845900088E
:100B0000A059000880B400AF00BFBD465DF8047B6B
:100B10007047000080B582B000AF7860074A7B68FC
:100B20001360074B1B68986800230222002103F022
:100B3000B5FD00BF0837BD4680BD00BF1C0A0020C0
:100B40005000002080B582B000AF78607B68002B39
:100B500004DB7B68022B01DC012305E003F020FCB1
:100B6000024609231360002318460837BD4680BD9E
:100B700080B586B000AFF860B9607A60FB68012B81
:100B800002D0FB68022B11D10E4B18687B689AB219
:100B90004FF0FF33B96801F0CCFB0346FB75FB7DDA
:100BA000002B01D17B6808E0052306E003F0F8FB89
:100BB0000246092313604FF0FF3318461837BD462D
:100BC00080BD00BF1C0A002080B582B000AF7860F5
:100BD0007B68002B04DB7B68022B01DC002306E032
:100BE00003F0DEFB0246092313604FF0FF33184683
:100BF0000837BD4680BD80B584B000AFF860B960ED
:100C00007A6003F0CDFB0246092313604FF0FF33F7
:100C100018461037BD4680BD80B586B000AFF8607D
:100C2000B9607A60FB68002B10D10E4B18684FF04A
:100C3000FF330122B96801F014FC0346FB75FB7D0C
:100C4000002B01D1012308E0052306E003F0A8FBF7
:100C50000246092313604FF0FF3318461837BD468C
:100C600080BD00BF1C0A002080B582B000AF786054
:100C700039607B68002B08DB7B68022B05DC3B6856
:100C80004FF400525A60002305E003F089FB02464E
:100C900009231360002318460837BD4680BD0000B5
:100CA00080B483B000AF00237B60104A0F4B5B6CB5
:100CB00043F4804353640D4B5B6C03F480437B60CF
:100CC0007B6800233B60094A084B1B6C43F0805350
:100CD0001364064B1B6C03F080533B603B6800BF02
:100CE0000C37BD465DF8047B704700BF00380240FA
:100CF00080B58AB000AF786007F1140300221A6053
:100D00005A609A60DA601A617B681B68194A9342DC
:100D10002BD100233B61184A174B5B6C43F4805383
:100D20005364154B5B6C03F480533B613B690023B8
:100D3000FB60114A104B1B6B43F0010313630E4B16
:100D40001B6B03F00103FB60FB68E0237B61022364
:100D5000BB610023FB6103233B6205237B6207F138
:100D600014031946054800F00BFA00BF2837BD46AA
:100D700080BD00BF0030014000380240000002404A
:100D800080B58AB000AF786007F1140300221A60C2
:100D90005A609A60DA601A617B681B68194A93424C
:100DA0002BD100233B61184A174B1B6C43F40033D3
:100DB0001364154B1B6C03F400333B613B69002348
:100DC000FB60114A104B1B6B43F0010313630E4B86
:100DD0001B6B03F00103FB60FB680C237B610223A8
:100DE000BB610023FB6103233B6207237B6207F1A6
:100DF00014031946054800F0C3F900BF2837BD4663
:100E000080BD00BF004400400038024000000240A6
:100E100080B400AFFEE780B400AFFEE780B400AF5F
:100E2000FEE780B400AFFEE780B400AFFEE780B419
:100E300000AF00BFBD465DF8047B704780B400AFD3
:100E400000BFBD465DF8047B704780B400AF00BFB3
:100E5000BD465DF8047B704780B500AF00F06AF8CE
:100E600000BF80BD80B400AF084A084BD3F888307B
:100E700043F47003C2F88830044B4FF000629A606C
:100E800000BFBD465DF8047B704700BF00ED00E089
:100E900080B500AF0E4A0E4B1B6843F4007313601D
:100EA0000B4A0B4B1B6843F480631360084A084BE2
:100EB0001B6843F480731360032000F02DF90020B9
:100EC00000F008F8FFF7ECFE0023184680BD00BFD5
:100ED000003C024080B582B000AF7860124B1A68C7
:100EE000124B1B7819464FF47A73B3FBF1F3B2FB44
:100EF000F3F3184600F037F90346002B01D0012325
:100F00000EE07B680F2B0AD8002279684FF0FF3083
:100F100000F00DF9064A7B681360002300E001230E
:100F200018460837BD4680BD18000020200000206C
:100F30001C00002080B400AF064B1B781A46064BFD
:100F40001B681344044A136000BFBD465DF8047B70
:100F5000704700BF20000020200A002080B400AFAE
:100F6000034B1B681846BD465DF8047B704700BF05
:100F7000200A002080B584B000AF7860FFF7EEFF54
:100F8000B8607B68FB60FB68B3F1FF3F05D0094B9D
:100F90001B781A46FB681344FB6000BFFFF7DEFFB7
:100FA0000246BB68D21AFB689A42F7D300BF1037DB
:100FB000BD4680BD2000002080B485B000AF7860C1
:100FC0007B6803F00703FB600C4BDB68BB60BA680F
:100FD0004FF6FF031340BB60FB681A02BB68134364
:100FE00043F0BF6343F40033BB60044ABB68D36083
:100FF00000BF1437BD465DF8047B704700ED00E08C
:1010000080B400AF044BDB681B0A03F007031846EB
:10101000BD465DF8047B704700ED00E080B483B00E
:1010200000AF03463960FB7197F90730002B0ADBEC
:101030000D4997F907303A68D2B21201D2B20B4487
:1010400083F800230AE00949FB7903F00F03043B0E
:101050003A68D2B21201D2B20B441A7600BF0C37F2
:10106000BD465DF8047B704700E100E000ED00E064
:1010700080B489B000AFF860B9607A60FB6803F0B3
:101080000703FB61FB69C3F10703042B28BF04239B
:10109000BB61FB690433062B02D9FB69033B00E00B
:1010A00000237B610122BB6902FA03F35A1EBB686D
:1010B0001A407B699A4001217B6901FA03F3591EAA
:1010C0007B680B40134318462437BD465DF8047B0C
:1010D0007047000080B582B000AF78607B68013B4C
:1010E000B3F1807F01D301230FE00A4A7B68013B03
:1010F00053600F214FF0FF30FFF790FF054B0022A8
:101100009A60044B07221A60002318460837BD4630
:1011100080BD00BF10E000E080B582B000AF786015
:101120007868FFF749FF00BF0837BD4680BD80B52E
:1011300086B000AF0346B9607A60FB7300237B6121
:10114000FFF75EFF78617A68B9687869FFF790FF0A
:10115000024697F90F3011461846FFF75FFF00BFB0
:101160001837BD4680BD80B582B000AF7860786822
:10117000FFF7B0FF034618460837BD4680BD0000A4
:1011800080B489B000AF7860396000237B610023B0
:101190003B610023BB610023FB6159E10122FB6934
:1011A00002FA03F37B613B681A687B6913403B6179
:1011B0003A697B699A4240F048813B685B68012B41
:1011C0000BD03B685B68022B07D03B685B68112B38
:1011D00003D03B685B68122B30D17B689B68BB6196
:1011E000FB695B00032202FA03F3DB43BA69134095
:1011F000BB613B68DA68FB695B0002FA03F3BA691A
:101200001343BB617B68BA699A607B685B68BB61AA
:101210000122FB6902FA03F3DB43BA691340BB61A5
:101220003B685B681B0903F00102FB6902FA03F3E8
:10123000BA691343BB617B68BA695A607B68DB6833
:10124000BB61FB695B00032202FA03F3DB43BA696B
:101250001340BB613B689A68FB695B0002FA03F3C9
:10126000BA691343BB617B68BA69DA603B685B6843
:10127000022B03D03B685B68122B23D1FB69DA0891
:101280007B68083253F82230BB61FB6903F0070327
:101290009B000F2202FA03F3DB43BA691340BB61E0
:1012A0003B681A69FB6903F007039B0002FA03F32A
:1012B000BA691343BB61FB69DA087B680832B96914
:1012C00043F822107B681B68BB61FB695B0003224B
:1012D00002FA03F3DB43BA691340BB613B685B6806
:1012E00003F00302FB695B0002FA03F3BA691343DC
:1012F000BB617B68BA691A603B685B6803F0805326
:10130000002B00F0A2800023FB60564A554B5B6C1B
:1013100043F480435364534B5B6C03F48043FB60A2
:10132000FB68514AFB699B08023352F82330BB61CA
:10133000FB6903F003039B000F2202FA03F3DB4374
:10134000BA691340BB617B68484A934219D07B68F5
:10135000474A934213D07B68464A93420DD07B683C
:10136000454A934207D07B68444A934201D1042303
:1013700008E0072306E0032304E0022302E0012340
:1013800000E00023FA6902F0030292009340BA6978
:101390001343BB613449FB699B080233BA6941F8C6
:1013A0002320374B1B68BB613B69DB43BA691340A1
:1013B000BB613B685B6803F48033002B03D0BA69E0
:1013C0003B691343BB612E4ABB6913602C4B5B68BE
:1013D000BB613B69DB43BA691340BB613B685B6837
:1013E00003F40033002B03D0BA693B691343BB619C
:1013F000234ABB695360224B9B68BB613B69DB435B
:10140000BA691340BB613B685B6803F48013002B2F
:1014100003D0BA693B691343BB61194ABB69936046
:10142000174BDB68BB613B69DB43BA691340BB61A7
:101430003B685B6803F40013002B03D0BA693B6977
:101440001343BB610E4ABB69D360FB690133FB6187
:10145000FB690F2B7FF6A2AE00BF2437BD465DF8B7
:10146000047B704700380240003801400000024011
:101470000004024000080240000C0240001002403C
:10148000003C014080B483B000AF78600B467B80A5
:1014900013467B707B78002B03D07A887B689A6137
:1014A00003E07B881A047B689A6100BF0C37BD4655
:1014B0005DF8047B7047000080B586B000AF7860AF
:1014C0007B68002B01D101235BE27B681B6803F082
:1014D0000103002B75D0A34B9B6803F00C03042B76
:1014E0000CD0A04B9B6803F00C03082B12D19D4B32
:1014F0005B6803F48003B3F5800F0BD1994B1B6835
:1015000003F40033002B5BD07B685B68002B57D162
:10151000012336E27B685B68B3F5803F06D1914AD0
:10152000904B1B6843F4803313601DE07B685B685D
:10153000B3F5A02F0CD18B4A8A4B1B6843F4802350
:101540001360884A874B1B6843F4803313600BE0B9
:10155000844A844B1B6823F480331360814A814B97
:101560001B6823F4802313607B685B68002B13D017
:10157000FFF7F4FC386108E0FFF7F0FC02463B6936
:10158000D31A642B01D90323FBE1764B1B6803F4C8
:101590000033002BF0D014E0FFF7E0FC386108E0E6
:1015A000FFF7DCFC02463B69D31A642B01D9032305
:1015B000E7E16C4B1B6803F40033002BF0D100E033
:1015C00000BF7B681B6803F00203002B63D0654BF0
:1015D0009B6803F00C03002B0BD0624B9B6803F05D
:1015E0000C03082B1CD15F4B5B6803F48003002BBA
:1015F00016D15C4B1B6803F00203002B05D07B68FF
:10160000DB68012B01D00123BBE15649554B1B6818
:1016100023F0F8027B681B69DB0013430B603AE0A0
:101620007B68DB68002B20D04F4B01221A60FFF74C
:1016300095FC386108E0FFF791FC02463B69D31A3C
:10164000022B01D903239CE1464B1B6803F00203E4
:10165000002BF0D04349434B1B6823F0F8027B6812
:101660001B69DB0013430B6015E03F4B00221A603F
:10167000FFF774FC386108E0FFF770FC02463B6935
:10168000D31A022B01D903237BE1364B1B6803F0ED
:101690000203002BF0D17B681B6803F00803002BCA
:1016A00030D07B685B69002B16D0304B01221A606A
:1016B000FFF754FC386108E0FFF750FC02463B6935
:1016C000D31A022B01D903235BE1264B5B6F03F096
:1016D0000203002BF0D015E0244B00221A60FFF724
:1016E0003DFC386108E0FFF739FC02463B69D31A3C
:1016F000022B01D9032344E11A4B5B6F03F0020371
:10170000002BF0D17B681B6803F00403002B00F072
:10171000A0800023FB75134B1B6C03F08053002B40
:101720000FD10023BB600F4A0E4B1B6C43F080535C
:1017300013640C4B1B6C03F08053BB60BB6801232C
:10174000FB750B4B1B6803F48073002B21D1084AF7
:10175000074B1B6843F480731360FFF7FFFB38618E
:1017600011E000BF0038024000004742800E4742AF
:1017700000700040FFF7F2FB02463B69D31A022BD0
:1017800001D90323FDE0814B1B6803F48073002B18
:10179000F0D07B689B68012B06D17D4A7C4B1B6F88
:1017A00043F0010313671CE07B689B68052B0CD199
:1017B000774A774B1B6F43F004031367744A744BEB
:1017C0001B6F43F0010313670BE0714A704B1B6FF3
:1017D00023F0010313676E4A6D4B1B6F23F0040364
:1017E00013677B689B68002B15D0FFF7B7FB386148
:1017F0000AE0FFF7B3FB02463B69D31A41F2883295
:10180000934201D90323BCE0614B1B6F03F0020339
:10181000002BEED014E0FFF7A1FB38610AE0FFF7E0
:101820009DFB02463B69D31A41F28832934201D9AB
:101830000323A6E0564B1B6F03F00203002BEED1EF
:10184000FB7D012B05D1524A514B1B6C23F0805379
:1018500013647B689B69002B00F092804C4B9B6863
:1018600003F00C03082B5CD07B689B69022B41D1F1
:10187000484B00221A60FFF771FB386108E0FFF760
:101880006DFB02463B69D31A022B01D9032378E092
:101890003F4B1B6803F00073002BF0D13C497B6881
:1018A000DA697B681B6A1A437B685B6A9B011A438F
:1018B0007B689B6A5B08013B1B041A437B68DB6AFD
:1018C0001B0613434B60334B01221A60FFF746FBA4
:1018D000386108E0FFF742FB02463B69D31A022B4E
:1018E00001D903234DE02A4B1B6803F00073002B42
:1018F000F0D045E0274B00221A60FFF72FFB38613C
:1019000008E0FFF72BFB02463B69D31A022B01D9F3
:10191000032336E01E4B1B6803F00073002BF0D14D
:101920002EE07B689B69012B01D1012329E0184B34
:101930005B68FB60FB6803F480027B68DB699A42AA
:101940001CD1FB6803F03F027B681B6A9A4215D1E9
:10195000FA6847F6C07313407A68526A93420DD111
:10196000FB6803F440327B689B6A9A4206D1FB68AD
:1019700003F070627B68DB6A9A4201D0012300E0C9
:10198000002318461837BD4680BD00BF00700040D8
:10199000003802406000474280B584B000AF7860F4
:1019A00039607B68002B01D10123CCE0684B1B68B8
:1019B00003F00F023B689A420CD2654B3A68D2B2F0
:1019C0001A70634B1B6803F00F023B689A4201D008
:1019D0000123B8E07B681B6803F00203002B20D0D2
:1019E0007B681B6803F00403002B05D0594A594B50
:1019F0009B6843F4E05393607B681B6803F0080323
:101A0000002B05D0534A534B9B6843F460439360CB
:101A10005049504B9B6823F0F0027B689B6813434E
:101A20008B607B681B6803F00103002B44D07B684C
:101A30005B68012B07D1474B1B6803F40033002B75
:101A400019D101237FE07B685B68022B03D07B68A0
:101A50005B68032B07D13F4B1B6803F00073002B1F
:101A600009D101236FE03B4B1B6803F00203002BFD
:101A700001D1012367E03749364B9B6823F003020D
:101A80007B685B6813438B60FFF768FAF8600AE0D5
:101A9000FFF764FA0246FB68D31A41F28832934298
:101AA00001D903234FE02B4B9B6803F00C027B68AA
:101AB0005B689B009A42EBD1254B1B6803F00F0239
:101AC0003B689A420CD9224B3A68D2B21A70204B2A
:101AD0001B6803F00F023B689A4201D0012332E0F9
:101AE0007B681B6803F00403002B08D01949194BCD
:101AF0009B6823F4E0527B68DB6813438B607B6850
:101B00001B6803F00803002B09D01249114B9B6896
:101B100023F460427B681B69DB0013438B6000F099
:101B200021F801460B4B9B681B0903F00F030A4A7F
:101B3000D35C21FA03F3094A1360094B1B6818466A
:101B4000FFF7C8F9002318461037BD4680BD00BF17
:101B5000003C024000380240BC5900081800002038
:101B60001C0000202DE9F04F87B000AF0022FA6082
:101B700000227A610022BA6000223A61514A9268DA
:101B800002F00C02042A07D0082A08D0002A40F0EC
:101B900090804D4B3B618FE04C4B3B618CE0494A60
:101BA000526802F03F02FA60464A526802F480022C
:101BB000002A23D0434B5B689B094FF0000440F29E
:101BC000FF114FF0000203EA010304EA02043F4A56
:101BD00002FB04F1002202FB03F20A443B49A3FB8F
:101BE000010153181946FB684FF000041A462346BA
:101BF000FEF74EFB03460C467B614CE0314A5268CF
:101C0000920911464FF0000240F2FF154FF0000616
:101C100005EA010506EA0206294632464FEA421B5A
:101C20004BEAD16B4FEA411A51465A46AA46B3468F
:101C300055465E464D1B62EB060629463246940128
:101C400044EA91648B015B1A64EB02044FEAC40915
:101C500049EA53794FEAC30843464C4655465E4627
:101C6000ED1846EB04062B463446A2027A607A68E9
:101C700042EA93527A609B023B6097E8180018464C
:101C80002146FB684FF000041A462346FEF700FB8E
:101C900003460C467B610B4B5B681B0C03F0030394
:101CA00001335B00BB607A69BB68B2FBF3F33B6155
:101CB00002E0054B3B6100BF3B6918461C37BD463F
:101CC000BDE8F08F003802400024F40040787D0128
:101CD00080B400AF034B1B681846BD465DF8047B1B
:101CE000704700BF1800002080B500AFFFF7F0FF7D
:101CF0000146054B9B689B0A03F00703034AD35C2C
:101D000021FA03F3184680BD00380240CC59000880
:101D100080B500AFFFF7DCFF0146054B9B685B0B0E
:101D200003F00703034AD35C21FA03F3184680BD8E
:101D300000380240CC59000880B582B000AF78600E
:101D40007B68002B01D1012355E07B6800229A6259
:101D50007B6893F85130DBB2002B06D17B68002200
:101D600083F850207868FEF7C3FF7B68022283F86F
:101D700051207B681B687A681268126822F0400262
:101D80001A607B681B687A6851687A6892681143A8
:101D90007A68D26811437A68126911437A68526985
:101DA00011437A68926902F4007211437A68D26929
:101DB00011437A68126A11437A68926A0A431A6078
:101DC0007B681B687A689269120C02F004017A68D9
:101DD000526A0A435A607B681B687A681268D26943
:101DE00022F40062DA617B6800225A657B68012276
:101DF00083F85120002318460837BD4680BD80B5C2
:101E00008CB000AFF860B9607A607B800123FB6220
:101E1000002387F82B30FB6893F85030012B01D159
:101E2000022388E1FB68012283F85020FFF796F82F
:101E30007862FB6893F8513087F82330FB685B6861
:101E4000FB617B887B8397F82330012B0FD0FB69E4
:101E5000B3F5827F07D1FB689B68002B03D197F80D
:101E60002330042B03D0022387F82B3059E1BB68C1
:101E7000002B05D07B68002B02D07B88002B03D180
:101E8000012387F82B304CE1FB6893F85130DBB22B
:101E9000042B03D0FB68052283F85120FB68002245
:101EA0005A65FB687A689A63FB687A88DA87FB6808
:101EB0007A889A87FB68BA681A63FB687A88DA8638
:101EC000FB687A889A86FB6800221A64FB68002205
:101ED0005A64FB681B681B6803F04003402B07D063
:101EE000FB681B68FA681268126842F040021A60C8
:101EF000FB68DB68B3F5006F78D1FB685B68002B8B
:101F000002D07B8B012B66D1FB681B68FA68126BD1
:101F10001288DA60FB681B6B9A1CFB681A63FB680B
:101F2000DB8E9BB2013B9AB2FB68DA8653E0FB681A
:101F30001B689B6803F00203022B1BD1FB68DB8E3E
:101F40009BB2002B16D0FB6A012B13D1FB681B68D8
:101F5000FA68126B1288DA60FB681B6B9A1CFB68CC
:101F60001A63FB68DB8E9BB2013B9AB2FB68DA8690
:101F70000023FB62FB681B689B6803F00103012BD5
:101F800019D1FB68DB8F9BB2002B14D0FB689B6BD5
:101F9000FA681268D26892B21A80FB689B6B9A1C2E
:101FA000FB689A63FB68DB8F9BB2013B9AB2FB68CC
:101FB000DA870123FB62FEF7D1FF02467B6AD21A61
:101FC000BB6B9A4207D3BB6BB3F1FF3F03D0032334
:101FD00087F82B30A5E0FB68DB8E9BB2002BA6D1E7
:101FE000FB68DB8F9BB2002BA1D17CE0FB685B68B8
:101FF000002B02D07B8B012B6BD1FB681B680C3351
:10200000FA68126B12781A70FB681B6B5A1CFB681B
:102010001A63FB68DB8E9BB2013B9AB2FB68DA86DF
:1020200057E0FB681B689B6803F00203022B1CD17E
:10203000FB68DB8E9BB2002B17D0FB6A012B14D1FF
:10204000FB681B680C33FA68126B12781A70FB6815
:102050001B6B5A1CFB681A63FB68DB8E9BB2013B4F
:102060009AB2FB68DA860023FB62FB681B689B68F8
:1020700003F00103012B19D1FB68DB8F9BB2002B0E
:1020800014D0FB689B6BFA681268D268D2B21A70DF
:10209000FB689B6B5A1CFB689A63FB68DB8F9BB2E7
:1020A000013B9AB2FB68DA870123FB62FEF756FF19
:1020B00002467B6AD21ABB6B9A4203D3BB6BB3F165
:1020C000FF3F02D1BB6B002B03D1032387F82B30DA
:1020D00027E0FB68DB8E9BB2002BA2D1FB68DB8F75
:1020E0009BB2002B9DD17A6AB96BF86800F092F828
:1020F0000346002B06D0012387F82B30FB682022F3
:102100005A650EE0FB689B68002B0AD100237B61B7
:10211000FB681B68DB687B61FB681B689B687B61F5
:102120007B69FB68012283F85120FB68002283F859
:10213000502097F82B3018463037BD4680BD80B50B
:1021400084B000AFF860B9603B601346FB714CE0AF
:102150003B68B3F1FF3F48D0FEF700FF0246BB6982
:10216000D21A3B689A4202D23B68002B3DD1FB68F1
:102170001B68FA681268526822F0E0025A60FB6835
:102180005B68B3F5827F11D1FB689B68B3F5004FA4
:1021900004D0FB689B68B3F5806F07D1FB681B68B0
:1021A000FA681268126822F040021A60FB689B6AA3
:1021B000B3F5005F0FD1FB681B68FA6812681268FC
:1021C00022F400521A60FB681B68FA6812681268F1
:1021D00042F400521A60FB68012283F85120FB6828
:1021E000002283F8502003230FE0FB681B689A68E5
:1021F000BB681A40BB689A420CBF01230023DBB2C4
:102200001A46FB799A42A3D1002318461037BD46DF
:1022100080BD000080B588B002AFF860B9607A6018
:102220001B4B1B681B4AA2FB03235B0D4FF47A7206
:1022300002FB03F37B61FB685B68B3F5827F12D11D
:102240007B680093BB6800228021F868FFF777FF66
:102250000346002B16D0FB685B6D43F02002FB6841
:102260005A6503230FE07B69002B0AD07B69013B91
:102270007B61FB681B689B6803F08003802BF2D0B6
:1022800000E000BF002318461837BD4680BD00BFE0
:1022900018000020819F5E1680B582B000AF786084
:1022A0007B68002B01D101233FE07B6893F8393034
:1022B000DBB2002B06D17B68002283F838207868D7
:1022C000FEF75EFD7B68242283F839207B681B685B
:1022D0007A681268D26822F40052DA60786800F0F6
:1022E000B1F97B681B687A681268126922F490421F
:1022F0001A617B681B687A681268526922F02A02A8
:102300005A617B681B687A681268D26842F400528E
:10231000DA607B680022DA637B68202283F8392048
:102320007B68202283F83A20002318460837BD46F0
:1023300080BD80B588B002AFF860B9603B601346DD
:10234000FB8000237B61FB6893F83930DBB2202BE4
:1023500040F08280BB68002B02D0FB88002B01D1AB
:1023600001237AE0FB6893F83830012B01D1022376
:1023700073E0FB68012283F83820FB680022DA63EF
:10238000FB68212283F83920FEF7E8FD7861FB68BD
:10239000FA889A84FB68FA88DA84FB68002283F85A
:1023A000382041E0FB68DB8C9BB2013B9AB2FB68B2
:1023B000DA84FB689B68B3F5805F21D13B680093AA
:1023C0007B6900228021F86800F0F1F80346002BB9
:1023D00001D0032341E0BB683B61FB681B683A699D
:1023E0001288C2F308025A60FB681B69002B03D1F4
:1023F000BB680233BB6017E0BB680133BB6013E00E
:102400003B6800937B6900228021F86800F0CFF8D8
:102410000346002B01D003231FE0FB681A68BB684A
:10242000591CB9601B785360FB68DB8C9BB2002B96
:10243000B8D13B6800937B6900224021F86800F026
:10244000B6F80346002B01D0032306E0FB682022E8
:1024500083F83920002300E0022318461837BD46D0
:1024600080BD80B588B002AFF860B9603B601346AC
:10247000FB8000237B61FB6893F83A30DBB2202BB2
:1024800040F09080BB68002B02D0FB88002B01D16C
:10249000012388E0FB6893F83830012B01D1022337
:1024A00081E0FB68012283F83820FB680022DA63B0
:1024B000FB68222283F83A20FEF750FD7861FB6822
:1024C000FA889A85FB68FA88DA85FB68002283F827
:1024D00038205CE0FB68DB8D9BB2013B9AB2FB6865
:1024E000DA85FB689B68B3F5805F2BD13B6800936E
:1024F0007B6900222021F86800F059F80346002B80
:1025000001D003234FE0BB683B61FB681B69002BD4
:102510000CD1FB681B685B689BB2C3F308039AB2DB
:102520003B691A80BB680233BB6030E0FB681B6804
:102530005B689BB2DBB29AB23B691A80BB6801331D
:10254000BB6024E03B6800937B6900222021F8688F
:1025500000F02DF80346002B01D0032323E0FB6895
:102560001B69002B08D1BB685A1CBA60FA68126854
:102570005268D2B21A700AE0BB685A1CBA60FA6894
:1025800012685268D2B202F07F02D2B21A70FB68AF
:10259000DB8D9BB2002B9DD1FB68202283F83A2073
:1025A000002300E0022318461837BD4680BD80B5E1
:1025B00084B000AFF860B9603B601346FB712CE05B
:1025C000BB69B3F1FF3F28D0BB69002B07D0FEF7F2
:1025D000C5FC02463B68D21ABB699A421DD9FB680A
:1025E0001B68FA681268D26822F4D072DA60FB685D
:1025F0001B68FA681268526922F001025A61FB688E
:10260000202283F83920FB68202283F83A20FB68D7
:10261000002283F8382003230FE0FB681B681A6848
:10262000BB681A40BB689A420CBF01230023DBB28F
:102630001A46FB799A42C3D0002318461037BD468C
:1026400080BD00002DE9F04FA3B000AFF867FB6F2D
:102650001968FB6F1B681B6923F44052FB6FDB6832
:1026600013430B61FB6F9A68FB6F1B691A43FB6F87
:102670005B691A43FB6FDB691343C7F88430FB6F58
:102680001968FB6F1B68DB6823F4164222F00C020A
:10269000D7F884301343CB60FB6F1968FB6F1B685E
:1026A0005B6923F44072FB6F9B6913434B61FB6FC3
:1026B000DB69B3F5004F40F07181FB6F1B68B44AD2
:1026C000934205D0FB6F1B68B24A934240F0B18041
:1026D000FFF71EFBC7F88000FB6F1D68D7F880303E
:1026E00019464FF000020B461446DB1844EB040475
:1026F0005B1844EB0204E0007864786C40EA5370A5
:102700007864DB003B64D7E9103413EB010844EB39
:10271000020940464946FB6F5B684FF00004DB1836
:1027200044EB04041A462346FDF7B2FD03460C466B
:102730001A46994BA3FB02235B091E01D7F8803090
:1027400019464FF000020B461446DB1844EB040414
:102750005B1844EB0204E000F863F86B40EA537046
:10276000F863DB00BB63D7E90E3413EB010844EBDD
:10277000020940464946FB6F5B684FF00004DB18D6
:1027800044EB04041A462346FDF782FD03460C463B
:102790001A46814BA3FB02135B09642101FB03F37F
:1027A000D31ADB0032337C4AA2FB03235B095B00B4
:1027B00003F4F8731E44D7F8803019464FF0000236
:1027C0000B461446DB1844EB04045B1844EB02048C
:1027D000E0007863786B40EA53707863DB003B631A
:1027E000D7E90C3413EB010844EB02094046494693
:1027F000FB6F5B684FF00004DB1844EB04041A46DF
:102800002346FDF745FD03460C461A46624BA3FBE3
:1028100002135B09642101FB03F3D31ADB0032339B
:102820005D4AA2FB03235B0903F007033344AB605B
:1028300040E2FFF759FAC7F88000FB6F1A683A6761
:10284000D7F8803019464FF000020B461446DB18CB
:1028500044EB04045B1844EB0204E000F862F86AFD
:1028600040EA5370F862DB00BB62D7E90A345D18B6
:1028700044EB020628463146FB6F5B684FF00004CC
:10288000DB1844EB04041A462346FDF701FD03461A
:102890000C461A46404BA3FB02235B091E01D7F8E6
:1028A000803019464FF000020B461446DB1844EB0B
:1028B00004045B1844EB02044FEAC40B4BEA537B5D
:1028C0004FEAC30A53465C4613EB010A44EB020B82
:1028D00050465946FB6F5B684FF00004DB1844EB31
:1028E00004041A462346FDF7D3FC03460C461A4659
:1028F000294BA3FB02135B09642101FB03F3D31AE9
:10290000DB003233244AA2FB03235B095B0003F4A0
:10291000F8731E44D7F8803019464FF000020B467A
:102920001446DB1844EB04045B1844EB02044FEA42
:10293000C40949EA53794FEAC30843464C4613EBAE
:10294000010844EB020940464946FB6F5B684FF0C3
:102950000004DB1844EB04041A462346FDF798FCF8
:1029600003460C461A460C4BA3FB02135B09642179
:1029700001FB03F3D31ADB003233074AA2FB032324
:102980005B0903F0070333443A6F936092E100BFA1
:1029900000100140001401401F85EB51FB6F1A68C5
:1029A000C14B9A4205D0FB6F1A68C04B9A4240F067
:1029B000BF80FFF7ADF9C7F88000FB6F1E68D7F83E
:1029C000803019464FF000020B461446DB1844EBEA
:1029D00004045B1844EB0204E0007862786A40EA81
:1029E00053707862DB003B62D7E9083413EB0108CF
:1029F00044EB020940464946FB6F5B684FF0000418
:102A0000A200FA65FA6D42EA9372FA659B00BB6513
:102A1000D7E91623FDF73CFC03460C461A46A44BA7
:102A2000A3FB02235B091D01D7F8803019464FF044
:102A300000020B461446DB1844EB04045B1844EB1D
:102A40000204E000F861F86940EA5370F861DB00C5
:102A5000BB61D7E9063413EB010844EB0209404699
:102A60004946FB6F5B684FF00004A2007A657A6DFF
:102A700042EA93727A659B003B65D7E91423FDF720
:102A800007FC03460C461A46894BA3FB02135B095D
:102A9000642101FB03F3D31A1B013233844AA2FBE6
:102AA00003235B0903F0F0031D44D7F88030194677
:102AB0004FF000020B461446DB1844EB04045B188D
:102AC00044EB0204E0007861786940EA5370786171
:102AD000DB003B61D7E9043413EB010844EB020946
:102AE00040464946FB6F5B684FF00004A200FA6461
:102AF000FA6C42EA9372FA649B00BB64D7E9122332
:102B0000FDF7C6FB03460C461A46694BA3FB0213AE
:102B10005B09642101FB03F3D31A1B013233644ABE
:102B2000A2FB03235B0903F00F032B44B360C1E056
:102B3000FFF7DAF8C7F88000FB6F1B68BB65D7F8B2
:102B4000803019464FF000020B461446DB1844EB68
:102B500004045B1844EB0204E60046EA5376DD0009
:102B60002B4634465D1844EB020628463146FB6F7F
:102B70005B684FF00004A5007D677D6F45EA9375A3
:102B80007D679C003C67D7E91C23FDF781FB03466A
:102B90000C461A46464BA3FB02135B091D01D7F8EE
:102BA000803019464FF000020B461446DB1844EB08
:102BB00004045B1844EB0204E000F860F86840EAA3
:102BC0005370F860D800B860D7E9023413EB0108FD
:102BD00044EB020940464946FB6F5B684FF0000436
:102BE000A600FE66FE6E46EA9376FE669C00BC6614
:102BF000D7E91A23FDF74CFB03460C461A462C4B2B
:102C0000A3FB02135B09642101FB03F3D31A1B012D
:102C10003233274AA2FB03135B0903F0F0031D4480
:102C2000D7F8803019464FF000020B461446DB18E7
:102C300044EB04045B1844EB0204E000786078681D
:102C400040EA53707860D800386097E8180013EBBA
:102C5000010844EB020940464946FB6F5B684FF0B0
:102C60000004A6007E667E6E46EA93767E669C0031
:102C70003C66D7E91823FDF70BFB03460C461A46C2
:102C80000B4BA3FB02135B09642101FB03F3D31A73
:102C90001B013233064AA2FB03135B0903F00F0347
:102CA0002B44BA6D936005E0001001400014014010
:102CB0001F85EB5100BF8C37BD46BDE8F08F00BFCC
:102CC00080B584B000AF7860224BDB689847214B19
:102CD0005B6998471F4B5B6A002B03D01D4B9B6AB7
:102CE000002B14D11B4B1B6A7A68120CD2B210460F
:102CF0009847184B1B6A7A68120AD2B21046984756
:102D0000144B1B6A7A68D2B21046984711E07B6870
:102D10001B0CDBB23B737B681B0ADBB27B737B68EB
:102D2000DBB2BB730B4B9B6A07F10C02032110460D
:102D30009847084BDB6998470346FB73054B9B6933
:102D40009847044B1B699847FB7B18461037BD46D4
:102D500080BD00BF2400002080B584B000AF786043
:102D60000B46FB70224BDB689847214B5B69984709
:102D70007B6843F004037B601D4B9B6A002B19D1D9
:102D80001B4B1B6A7A68120CD2B210469847184B3C
:102D90001B6A7A68120AD2B210469847144B1B6A13
:102DA0007A68D2B210469847114B1B6AFA781046DF
:102DB000984713E07B681B0CDBB23B737B681B0AF4
:102DC000DBB27B737B68DBB2BB73FB78FB73084BB6
:102DD0009B6A07F10C02042110469847044B9B693B
:102DE0009847034B1B69984700BF1037BD4680BD0D
:102DF0002400002090B587B000AFF860B96013469A
:102E0000FB802B4BDB689847294B5B699847284B25
:102E10005B6A002B03D0264B9B6A002B26D1244BE8
:102E20001B6AFA68120CD2B210469847204B1B6AF4
:102E3000FA68120AD2B2104698471D4B1B6AFA680C
:102E4000D2B2104698470023FB820AE0FB8ABA6898
:102E5000D418174BDB69984703462370FB8A01336C
:102E6000FB82FA8AFB889A42F0D317E0FB681B0CBE
:102E7000DBB23B74FB681B0ADBB27B74FB68DBB222
:102E8000BB740B4B9B6A07F1100203211046984755
:102E9000074B5B6AFA881146B8689847044B9B69F0
:102EA0009847034B1B69984700BF1C37BD4690BD30
:102EB0002400002080B586B000AFF860B9601346EA
:102EC000FB802B4BDB689847294B5B699847FB6875
:102ED00043F00403FB60264B9B6A002B26D1244B56
:102EE0001B6AFA68120CD2B210469847204B1B6A34
:102EF000FA68120AD2B2104698471D4B1B6AFA684C
:102F0000D2B2104698470023FB820AE0184B1B6A96
:102F1000FA8AB9680A44127810469847FB8A013346
:102F2000FB82FA8AFB889A42F0D317E0FB681B0CFD
:102F3000DBB23B74FB681B0ADBB27B74FB68DBB261
:102F4000BB740B4B9B6A07F1100203211046984794
:102F5000074B9B6AFA881146B8689847044B9B69EF
:102F60009847034B1B69984700BF1837BD4680BD83
:102F70002400002090B585B000AF0346FB7100230C
:102F8000FB810023BB81FB799B000133DB0003F550
:102F900000531846FFF794FE0346BB81BB891B0212
:102FA0009CB2FB799B000133DB0003F50453184608
:102FB000FFF786FE03469BB22344BB81BB89002BEF
:102FC0001AD0FB799B000133DB0003F50053184650
:102FD000FFF776FE0346FB81FB891B029CB2FB795F
:102FE0009B000133DB0003F504531846FFF768FE2E
:102FF00003469BB22344FB81FA89BB899A42C2D122
:10300000FB8918461437BD4690BD90B585B000AF1A
:103010000346FB710023FB810023BB81FB799B00EE
:103020000133DB0003F518531846FFF749FE03464A
:10303000BB81BB891B029CB2FB799B000133DB0087
:1030400003F51C531846FFF73BFE03469BB223448F
:10305000BB81BB89002B1AD0FB799B000133DB00BD
:1030600003F518531846FFF72BFE0346FB81FB8937
:103070001B029CB2FB799B000133DB0003F51C5360
:103080001846FFF71DFE03469BB22344FB81FA89D5
:10309000BB899A42C2D1FB8918461437BD4690BD00
:1030A00090B585B000AF03463960FB711346BB8015
:1030B0000023FB810023BB60BB88002B48D0FB7939
:1030C0009B000133DB0003F510531846FFF7F8FDB2
:1030D00003469BB21B029CB2FB799B000133DB00D1
:1030E00003F514531846FFF7EBFD03469BB2234448
:1030F000FB81FB891B02FA7992000232D200134451
:10310000BB60BB881A463968B868FFF7D3FEFA89F6
:10311000BB881344FB81FB799B000133DB0003F583
:1031200010531A46FB891B0A9BB2DBB219461046A4
:10313000FFF712FEFB799B000133DB0003F514530C
:103140001A46FB89DBB219461046FFF705FE00E080
:1031500000BF1437BD4690BD90B585B000AF0446A2
:10316000084611461A462346FB710346BB710B46BF
:10317000BB801346FB70FB79082B02D94FF0FF335D
:10318000EFE0BB79012B04D0012B10DB042B0EDC0C
:1031900011E007F10C03042219464FF47060FFF7A9
:1031A00029FEFB68002B05D16FF00203D9E06FF018
:1031B0000403D6E000BFFB7803F00403002B02D029
:1031C0006FF00503CDE0FB78002B28D0BB79012BF5
:1031D00002D0022B08D022E0FB7803F02103002B61
:1031E0001AD16FF00503BCE0FB7803F02003002B3D
:1031F00006D097F90330002B02DB6FF00503B0E037
:10320000FB7803F01003002B08D097F90330002B54
:1032100004DB6FF00503A4E000BF00E000BFFB7912
:10322000184600F0ADF8FB799B000133DB0018462F
:1032300097F9033023F00F035AB297F9063013437E
:103240005BB2DBB21946FFF787FDBB88002B10D1BC
:10325000464B1B885A1C91B2444A1180BB80434B99
:103260001B884FF6F072934203D1404B4FF440421B
:103270001A80FB799B000133DB0003F580631A465B
:10328000BB881B0A9BB2DBB219461046FFF764FDF0
:10329000FB799B000133DB0003F5A0631A46BB8872
:1032A000DBB219461046FFF757FDFB799B0001334F
:1032B000DB0003F5807301211846FFF74DFD00BFC9
:1032C000FB799B000133DB0003F580731846FFF7A1
:1032D000F7FC0346002BF3D1FB79012202FA03F33A
:1032E0001BB2DB431AB2224B1B881BB213401BB22A
:1032F0009AB21F4B1A80FB7803F00102FB7902FAA5
:1033000003F31AB21A4B1B881BB213431BB29AB2B7
:10331000174B1A80FB79012202FA03F31BB2DB433D
:103320001AB2144B1B881BB213401BB29AB2114B3A
:103330001A80FB79104A002122F81310FB790F4AFA
:103340000021D15400BFFB799B000133DB0003F562
:1033500040731846FFF7B4FC0346002BF3D097F9EF
:10336000073018461437BD4690BD00BF220000202C
:10337000D0000020D2000020D4000020E400002073
:1033800080B582B000AF0346FB71FB79082B02D9F0
:103390004FF0FF3355E0FB799B000133DB0003F571
:1033A000807310211846FFF7D7FC00BFFB799B0004
:1033B0000133DB0003F580731846FFF781FC0346F9
:1033C000002BF3D1FB799B000133DB0003F5007385
:1033D0001F211846FFF7C0FCFB79012202FA03F314
:1033E0001BB2DB431AB2194B1B881BB213401BB232
:1033F0009AB2164B1A80FB79012202FA03F31BB230
:10340000DB431AB2124B1B881BB213401BB29AB299
:103410000F4B1A80FB790F4A002122F81310FB7919
:103420000D4A0021D15400BFFB799B000133DB0022
:1034300003F540731846FFF743FC0346002BF3D116
:10344000012318460837BD4680BD00BFD0000020CC
:10345000D2000020D4000020E400002080B582B01B
:1034600000AF0346FB71FB79082B02D94FF0FF3305
:1034700049E0FB799B000133DB001846FFF720FC95
:10348000034603F00F03012B02D06FF004033AE070
:10349000FB799B000133DB0003F540731846FFF70F
:1034A0000FFC0346132B02D06FF002032BE0FB79D5
:1034B0009B000133DB0003F5807302211846FFF700
:1034C0004BFC00BFFB799B000133DB0003F58073ED
:1034D0001846FFF7F5FB0346002BF3D106E0FB7916
:1034E0001846FFF74DFF6FF003030CE0FB799B00DC
:1034F0000133DB0003F540731846FFF7E1FB034699
:10350000142BECD1012318460837BD4680BD0000BE
:1035100080B582B000AF0346FB71FB79082B02D95E
:103520004FF0FF3362E0FB799B000133DB0018466C
:10353000FFF7C6FB034603F00F03012B02D06FF029
:10354000040353E0FB799B000133DB0003F5807338
:1035500008211846FFF700FC00BFFB799B000133F0
:10356000DB0003F580731846FFF7AAFB0346002B28
:10357000F3D1FB79012202FA03F31BB2DB431AB247
:103580001C4B1B881BB213401BB29AB2194B1A80FA
:10359000194B1B881A46FB7942FA03F303F0010327
:1035A000002B16D0002321E0FB799B000133DB00C8
:1035B00003F500731846FFF783FB034603F0080387
:1035C000002B06D0FB791846FFF7DAFE6FF00C03EC
:1035D0000CE0FB799B000133DB0003F540731846D8
:1035E000FFF76EFB0346002BDED101231846083798
:1035F000BD4680BDD2000020D000002080B584B040
:1036000000AF03463960FB711346BB800023FB7398
:103610000023BB81FB79082B02D94FF0FF33DEE09A
:10362000FB799B000133DB001846FFF749FB03469B
:1036300003F00F03012B02D06FF00403CFE0BB882F
:10364000002B02D16FF00D03C9E0FB799B00013321
:10365000DB0003F540731846FFF732FB0346FB73AC
:10366000FB7B172B05D0FB7B1C2B02D06FF00603D6
:10367000B5E05D4B1B881A46FB7942FA03F303F071
:103680000103002B39D0FB799B000133DB0003F5EC
:1036900000731846FFF714FB034603F01F03FB7388
:1036A000FB7B03F01003002B19D0FB799B00013347
:1036B000DB0003F5007310211846FFF74DFBFB7983
:1036C000012202FA03F31BB2DB431AB2464B1B88FA
:1036D0001BB213401BB29AB2434B1A800DE0FB7B26
:1036E00003F00803002B06D0FB791846FFF748FECD
:1036F0006FF00C0373E0002371E0FB799B00013352
:10370000DB0003F5F8531846FFF7DAFA03469BB2DD
:103710009B02BB81BA88BB899A4201D9BB89BB8015
:10372000FB791846FFF726FC0346BB81FB799B001B
:103730000133DB0003F540731846FFF7C1FA034677
:10374000FB73FB7B172B09D0FB7B1C2B06D0FB7973
:103750001846FFF715FE6FF0060340E0234B1B8869
:103760001A46FB7942FA03F303F00103002B05D05C
:10377000BA88BB899A4201D9002330E0BA88BB8954
:103780009A4200D9CCE700BFBA88FB79396818465D
:10379000FFF786FCFB799B000133DB0003F58073A8
:1037A00020211846FFF7D8FA00BFFB799B000133B0
:1037B000DB0003F580731846FFF782FA0346002BFF
:1037C000F3D1FB79012202FA03F31AB2064B1B88EC
:1037D0001BB213431BB29AB2034B1A80BB88184624
:1037E0001037BD4680BD00BFD2000020D0000020B1
:1037F00090B583B000AF03463A60FB710B46BB71D6
:10380000FB79082B02D94FF0FF3301E1BB790C2B78
:1038100000F2FA8001A252F823F000BF51380008EC
:103820006D38000889380008A5380008DF3800081E
:10383000F7380008093A0008313900086B390008E8
:103840007D3900088F390008AB390008E3390008DA
:10385000FB799B000133DB001846FFF731FA034682
:1038600023F00F03DAB23B681A70D0E0FB799B00BB
:103870000133DB0003F5B0531846FFF721FA034686
:103880001A463B681A70C2E0FB799B000133DB00EB
:1038900003F5A8531846FFF713FA03461A463B6888
:1038A0001A70B4E0FB799B000133DB0003F5905301
:1038B0001846FFF705FA03469BB21B029CB2FB7940
:1038C0009B000133DB0003F598531846FFF7F8F926
:1038D00003469BB223449AB23B681A8097E0FB7977
:1038E0009B000133DB0003F540630422396818466E
:1038F000FFF780FA8BE0FB799B000133DB0003F5D7
:1039000080531846FFF7DCF903469BB21B029CB2BA
:10391000FB799B000133DB0003F588531846FFF762
:10392000CFF903469BB223449AB23B681A806EE0FB
:10393000FB799B000133DB001846FFF7C1F9034612
:1039400003F00F03012B02D06FF0040360E0FB795A
:103950009B000133DB0003F53C531846FFF7B0F939
:1039600003469AB23B681A8051E0FB791846FFF78C
:1039700001FB03461A463B681A8048E0FB7918466B
:10398000FFF743FB03461A463B681A803FE0FB798A
:103990009B000133DB0003F540731846FFF790F9F5
:1039A00003461A463B681A7031E0FB799B000133ED
:1039B000DB001846FFF784F9034603F00103002BF0
:1039C00008D0FB791846FFF720FB03461A463B68F0
:1039D0001A801CE0FB79104A32F813203B681A80E9
:1039E00015E0FB799B000133DB001846FFF768F90F
:1039F0000346012B02D16FF0040309E0FB79074A6B
:103A0000D25C3B681A7002E06FF0010300E0012312
:103A100018460C37BD4690BDD4000020E4000020BD
:103A200080B400AF00BFBD465DF8047B704780B432
:103A300000AF00BFBD465DF8047B704780B400AFA7
:103A400000BFBD465DF8047B704780B400AF00BF87
:103A5000BD465DF8047B704780B483B000AF7860EA
:103A60007B681B78DBB218460C37BD465DF8047BDB
:103A7000704780B483B000AF78600B46FB707B6802
:103A8000FA781A7000BF0C37BD465DF8047B7047AA
:103A900080B400AF00231846BD465DF8047B704734
:103AA00080B483B000AF0346FB7100BF0C37BD4646
:103AB0005DF8047B7047000080B483B000AF78608D
:103AC00039607B68002B02D03B68002B06D1094B84
:103AD000094A5A61074B094A9A6105E0054A7B6821
:103AE0005361044A3B68936100BF0C37BD465DF8E3
:103AF000047B7047240000203D3A00084B3A000840
:103B000080B483B000AF7860396000BF0F4B1B8872
:103B100003F40073002BF9D07B68002B02D03B68C4
:103B2000002B06D1094B0A4ADA61084B094A1A628E
:103B300005E0064A7B68D361044A3B68136200BF14
:103B40000C37BD465DF8047B704700BF24000020A1
:103B5000913A0008A13A000890B587B000AF03463B
:103B60003960FB710023FB750023FB6000233B6180
:103B7000FB790F2B00F2C28001A252F823F000BFA4
:103B8000C13B0008C73B0008F33B0008E73B0008C7
:103B9000013C00080D3C00081B3C0008413C0008AB
:103BA000673C0008A13C0008A73C0008AF3C0008A7
:103BB000033D0008B73C0008C53C0008E13C000894
:103BC00000F0A8F89EE03B68002B04D03B68FB6047
:103BD000FB6808333B61FB683A691146184600F000
:103BE000E5F803468FE03B681B88184600F06AF949
:103BF00088E000F09AF903461A463B681A8081E093
:103C00003B681B88184600F0B5F97BE000F0CDF961
:103C100003461A463B681A8074E03B681B881B0AFF
:103C20009BB2DBB219464FF49850FFF795F83B680A
:103C30001B88DBB219464FF4A050FFF78DF861E006
:103C40004FF49850FFF73CF803469BB21B029CB21E
:103C50004FF4A050FFF734F803469BB223449AB2C6
:103C60003B681A804EE02A4B9A783B681A703B6892
:103C70000133274AD2781A703B680233244A1279FA
:103C80001A703B680333224A52791A703B68043336
:103C90001F4A92791A703B68053300221A7031E08E
:103CA00000F0D5F92EE0386800F0F8F92AE038681D
:103CB00000F036FA26E03B681B78184600F07CFAE4
:103CC000034620E000F0AAF90346FB75FB7DFF2BBD
:103CD00002D14FF0FF3316E03B68FA7D1A7011E015
:103CE00000F086F90346FB75FB7DFF2B02D14FF0F8
:103CF000FF3308E03B68FA7D1A7003E04FF0FF33B2
:103D000001E000BF002318461C37BD4690BD00BF30
:103D10002400002080B586B000AF3B1D0622194666
:103D20004FF41060FFF766F807F1140304221946F8
:103D30004FF48070FFF75EF807F110030422194674
:103D40004FF4A060FFF756F807F10C030422194660
:103D50004FF47060FFF74EF880210020FEF7FCFF63
:103D60000020FEF7ADFF3B1D062219464FF4106000
:103D7000FFF7A0F807F11403042219464FF48070EE
:103D8000FFF798F807F11003042219464FF4A060DA
:103D9000FFF790F807F10C03042219464FF4706006
:103DA000FFF788F800BF1837BD4680BD80B584B0E6
:103DB00000AF786039600023BB73FFF7ABFF7B680F
:103DC000002B3BD00023BB730023FB7315E097F956
:103DD0000F307A6813441A78BB7B1344DBB2BB7391
:103DE00097F90E30102B02DD4FF0FF3366E097F9A4
:103DF0000F30DBB20133DBB2FB7397F90F30072BC7
:103E0000E5DD0023FB7315E097F90F309B000133CC
:103E1000DB0003F5F853184697F90F307A6813441E
:103E20001B781946FEF798FF97F90F30DBB2013384
:103E3000DBB2FB7397F90F30072BE5DD3B68002BF6
:103E40003BD00023BB730023FB7315E097F90F30C1
:103E50003A6813441A78BB7B1344DBB2BB7397F9FF
:103E60000E30102B02DD4FF0FF3327E097F90F30B3
:103E7000DBB20133DBB2FB7397F90F30072BE5DDC3
:103E80000023FB7315E097F90F309B000133DB0033
:103E900003F5F053184697F90F303A6813441B782E
:103EA0001946FEF759FF97F90F30DBB20133DBB249
:103EB000FB7397F90F30072BE5DD00231846103709
:103EC000BD4680BD80B584B000AF0346FB80FB8853
:103ED000FB73FB881B0A9BB2BB73FB7B23F00F03B6
:103EE000DBB219464FF4A850FEF736FF0023FB73F0
:103EF00014E0BA7BFB7B42FA03F303F00103002BCF
:103F000009D0FB7B9B000133DB0003F500731F210D
:103F10001846FEF721FFFB7B0133FB73FB7B072B6E
:103F2000E7D900BF1037BD4680BD80B582B000AF75
:103F30000023FB710023BB710023BB804FF4A8500A
:103F4000FEF7BEFE034623F00F03FB714FF4B8509B
:103F5000FEF7B6FE0346BB71BB79BB80BB881B0274
:103F60009AB2FB799BB21344BB80BB8818460837D2
:103F7000BD4680BD80B584B000AF0346FB80FB88A2
:103F8000FB73FB881B0A9BB2BB73FB7B19464FF488
:103F9000B050FEF7E1FEBB7B19464FF4C050FEF770
:103FA000DBFE00BF1037BD4680BD80B582B000AFDC
:103FB0000023FB710023BB710023BB804FF4B05082
:103FC000FEF77EFE0346FB714FF4C050FEF778FE0D
:103FD0000346BB71BB79BB80BB881B029AB2FB79DD
:103FE0009BB21344BB80BB8818460837BD4680BDD2
:103FF00080B582B000AF0023FB714FF43850FEF75C
:104000005FFE034603F00103002B01D00123FB7187
:1040100097F9073018460837BD4680BD80B582B095
:1040200000AF0023FB714FF43850FEF749FE034602
:1040300003F03803302B02D10123FB7101E0002390
:10404000FB7197F9073018460837BD4680BD80B52B
:1040500082B000AF4FF43850FEF732FE0346FB71DA
:10406000FB7903F07F03FB71FB7919464FF438505D
:10407000FEF772FE4FF43850FEF722FE0346FB7146
:10408000FB7963F07F03FB71FB7919464FF43850DD
:10409000FEF762FE00BF0837BD4680BD80B584B024
:1040A00000AF78600023FB737B681B78012B04D181
:1040B000FB7B43F04003FB7303E0FB7B23F04003F7
:1040C000FB737B685B78012B04D1FB7B43F03803E7
:1040D000FB7319E07B68DB78012B0DD17B689B7843
:1040E000012B04D1FB7B43F01803FB730CE0FB7B3B
:1040F00043F00803FB7307E07B689B78012B03D137
:10410000FB7B43F01003FB73FB7B19464FF43850E5
:10411000FEF722FEFFF79BFF00BF1037BD4680BDB4
:1041200080B584B000AF78600023FB734FF4385043
:10413000FEF7C6FD0346FB73FB7B03F04003002B39
:1041400014BF01230023DBB21A467B681A70FB7B85
:1041500003F03803202B01D0382B03D17B680122D8
:104160005A7003E07B6800225A7000BFFB7B03F0AB
:104170003803182B03D0202B01D0102B03D17B68E0
:1041800001229A7003E07B6800229A7000BFFB7BDB
:1041900003F03803182B03D0202B01D0082B03D1B8
:1041A0007B680122DA7003E07B680022DA7000BFCE
:1041B00000BF1037BD4680BD80B584B000AF034658
:1041C000FB710023FB734FF43850FEF779FD034673
:1041D000FB73FB7B03F04003002B02D14FF0FF3356
:1041E00030E0FB7B23F03803FB73FB79012B04D118
:1041F000FB7B43F03003FB7303E0FB7B43F03803AE
:10420000FB73FB7B19464FF43850FEF7A5FDFFF713
:104210001EFF4FF43850FEF753FD0346FB73FB7946
:10422000012B06D1FB7B03F03003002B08D00023C9
:1042300008E0FB7B03F03803002B01D0002301E0F2
:104240004FF0FF3318461037BD4680BD80B582B0B1
:1042500000AF78607B68062219464FF41060FEF7C5
:1042600029FE7B680E33042219464FF48070FEF756
:1042700021FE7B680A33042219464FF4A060FEF742
:1042800019FE7B680633042219464FF47060FEF76E
:1042900011FE7B689A7C0B4B1A707B68DA7C094BA9
:1042A0005A707B681A7D074B9A707B685A7D054B64
:1042B000DA707B689A7D044B1A7000BF0837BD46E0
:1042C00080BD00BFEC000020F000002080B582B06F
:1042D00000AF78607B68062219464FF41060FEF745
:1042E00089FD7B680E33042219464FF48070FEF777
:1042F00081FD7B680A33042219464FF4A060FEF763
:1043000079FD7B680633042219464FF47060FEF78E
:1043100071FD0C4B1A787B689A740A4B5A787B684B
:10432000DA74084B9A787B681A75064BDA787B68E2
:104330005A75054B1A787B689A7500BF0837BD46D9
:1043400080BD00BFEC000020F0000020DFF834D07A
:10435000002103E00C4B5B58435004310B480C4BDD
:1043600042189A42F6D30B4A02E0002342F8043B7B
:10437000094B9A42F9D3FCF775FD00F017F8FCF7EA
:1043800081F97047000002207C5A000800000020DC
:10439000B4000020B4000020280A0020FEE700003E
:1043A000014B1868704700BF5000002070B50D4EDB
:1043B0000D4CA41BA4100025A54209D10B4E0C4C9A
:1043C00001F00AFAA41BA4100025A54205D170BD76
:1043D00056F8253098470135EEE756F825309847CE
:1043E0000135F2E7745A0008745A0008745A00083C
:1043F000785A0008024B0146186800F065B800BF03
:104400005000002010B5431E0A44914200D110BD57
:1044100011F8014B03F8014FF7E7024403469342BA
:1044200000D1704703F8011BF9E7000038B50546D5
:10443000002945D051F8043C0C1F002BB8BFE418EC
:1044400000F016FD1F4A1368104633B9636014600C
:104450002846BDE8384000F00CBDA3420CD92168C5
:104460006218934204BF1A685B68636004BF521805
:1044700022600460ECE713465A680AB1A242FAD9F6
:1044800019685818A0420BD120680144581882427C
:104490001960DDD1106852685A6001441960D7E78D
:1044A00002D90C232B60D3E7206821188A4204BF6D
:1044B00011685268626004BF091821605C60C7E738
:1044C00038BD00BFF400002070B5CD1C25F00305F9
:1044D00008350C2D38BF0C25002D064601DBA942FE
:1044E00003D90C233360002070BD00F0C1FC234AC7
:1044F0001468214691B9224C23681BB9304600F05C
:10450000BDF820602946304600F0B8F8431C26D19B
:104510000C233360304600F0ACFCE4E70B685B1B17
:104520001AD40B2B0FD90B60CD50CC18304600F0AD
:10453000A0FC04F10B00231D20F00700C31A1BD0C0
:104540005A42E25070BD8C420DBF63684B68636095
:10455000136018BF0C46E9E70C464968CAE7C41C5B
:1045600024F00304A04205D0211A304600F086F85A
:104570000130CDD02560D9E770BD00BFF400002028
:10458000F80000200FB40A4B13B51C6824B1A369CE
:1045900013B9204600F06CFB05AB049AA1680193A7
:1045A000204600F0E1FD02B0BDE8104004B07047C5
:1045B0005000002070B50E46054618B183690BB94E
:1045C00000F056FBAB69AC6813B9284600F050FB0D
:1045D000234B9C4217D16C68A3891B071DD5236907
:1045E000DBB1013EA36816F8011F013BA360E9B9E6
:1045F000002B2EDA22460A21284600F065F9013008
:1046000011D00A2070BD174B9C4201D1AC68E3E782
:10461000154B9C4208BFEC68DEE72146284600F0B7
:10462000B7F90028DDD04FF0FF3070BD002B04DA61
:10463000A269934206DB0A2904D023685A1C22602F
:104640001970CFE72246284600F03EF90130C9D163
:10465000E9E723680A205A1C2260187070BD00BF69
:10466000F8590008185A0008D8590008024B0146AA
:104670001868FFF79FBF00BF5000002038B5064CF8
:10468000002305460846236001F098F8431C02D138
:10469000236803B12B6038BD240A00202DE9F743BD
:1046A0001D46514B1E6804460F46904626B1B3691D
:1046B00013B9304600F0DCFA4C4B9C4252D174687E
:1046C000B8F1020F06D0B8F1010F00F28980002D79
:1046D000C0F286802146304600F060FA616B41B13D
:1046E00004F14403994202D03046FFF79FFE0023B5
:1046F00063630023A3616360A3891B0603D521695B
:104700003046FFF793FEA38923F44A6323F00303A3
:10471000B8F1020FA3815DD001AB6A462146304655
:1047200000F042FBA3891843A0812DBB009D2846C1
:10473000FFF760FE074600284ED1DDF80090A9453E
:104740003CD14FF0FF30A38943F00203A381002343
:10475000A36004F14703236023610123636103B075
:10476000BDE8F083224B9C4201D1B468A8E7214BFD
:104770009C4208BFF468A3E7002FD8D0B36913B9EF
:10478000304600F075FAB8F1010F08BFA389276021
:1047900004BF43F00103A381A389276113F008003C
:1047A00065611BD013F0010018BF6D424FF000038C
:1047B0001DBFA360A5611846A560D0E74846FFF776
:1047C00019FE07460028BCD0A38943F08003A381CB
:1047D0004D46D3E70020B6E7A946F5E7A060BEE75F
:1047E0004FF0FF30BBE700BF50000020F859000831
:1047F000185A0008D85900080EB400B59CB04FF400
:1048000002711DABADF81410029006906FF00041DC
:104810000A48049107914FF6FF7153F8042BADF845
:1048200016100068019302A900F080FB029B002291
:104830001A701CB05DF804EB03B070475000002004
:1048400010B50C46B1F90E1000F03AFF0028ABBFCE
:10485000636DA3891B1823F48053ACBF6365A381E8
:1048600010BD2DE9F0411F468B89DB0505460C463E
:10487000164605D502230022B1F90E1000F082FA87
:10488000A389B4F90E1023F48053A38132463B462A
:104890002846BDE8F04100F069B810B50C46B1F902
:1048A0000E1000F06FFA431CA38915BF606523F456
:1048B000805343F48053A38118BFA38110BDB1F985
:1048C0000E1000F0D3B80000F8B50E4614460546A9
:1048D00018B183690BB900F0CBF9214B9C422AD166
:1048E0006C68A369A360A3891A072ED5236963B3F3
:1048F00023692068C01A6369F6B29842374604DB20
:104900002146284600F04AF928BBA368013BA36072
:1049100023685A1C22601E7063690130984204D0DB
:10492000A389DB0719D50A2E17D12146284600F0A6
:1049300035F990B10FE00B4B9C4201D1AC68D0E748
:10494000094B9C4208BFEC68CBE72146284600F0A3
:104950001FF80028CCD04FF0FF373846F8BD00BF15
:10496000F8590008185A0008D859000838B5074CFB
:10497000054608461146002222601A46FCF7F8F860
:10498000431C02D1236803B12B6038BD240A0020E8
:10499000324B70B51D6806460C4625B1AB6913B99C
:1049A000284600F065F92E4B9C420FD16C68B4F993
:1049B0000C309AB215072CD4D00611D409223260DB
:1049C00043F04003A3814FF0FF3070BD254B9C4264
:1049D00001D1AC68EBE7244B9C4208BFEC68E6E7EA
:1049E000510712D5616B41B104F14403994202D0E1
:1049F0003046FFF71BFD00236363A38923F02403E4
:104A0000A3810023636023692360A38943F0080323
:104A1000A38123694BB9A38903F42073B3F5007F05
:104A200003D02146304600F0E3F9A28912F00103D9
:104A30000CD00023A36063695B42A361236953B96F
:104A4000B4F90C3013F08000BAD170BD920758BF92
:104A50006369A360F2E70020F7E700BF5000002081
:104A6000F8590008185A0008D859000838B5064CFB
:104A70000023054608462360FCF7A6F8431C02D134
:104A8000236803B12B6038BD240A00208A892DE9F0
:104A9000F041054610070C465AD44B68002B05DC44
:104AA0000B6C002B02DC0020BDE8F081E66A002ED2
:104AB000F9D0002312F480522F682B6033D0606D40
:104AC000A3895A0705D56368C01A636B0BB1236CC1
:104AD000C01A00230246E66A216A2846B047431CF2
:104AE000A38906D129681D294BD82B4ACA40D6076D
:104AF00047D500226260D9042269226004D5421C95
:104B000001D12B6803B96065616B2F600029CAD0A1
:104B100004F14403994202D02846FFF787FC0020A5
:104B20006063BDE8F081216A01232846B047411C3B
:104B3000C6D12B68002BC3D01D2B01D0162B01D161
:104B40002F60B0E7A38943F04003A381BDE8F08163
:104B50000F69002FA7D093070E6808BF4B690F603D
:104B600018BF0023A6EB07088B60B8F1000F9ADD91
:104B700043463A46216AA66A2846B047002807DC21
:104B8000A38943F04003A3814FF0FF30BDE8F081DB
:104B90000744A8EB0008E8E70100402038B50B699E
:104BA00005460C46DBB118B183690BB900F060F81B
:104BB0000C4B9C4209D16C68B4F90C307BB1214696
:104BC0002846BDE83840FFF761BF074B9C4201D142
:104BD000AC68F1E7054B9C4208BFEC68ECE70020AD
:104BE00038BD00BFF8590008185A0008D859000805
:104BF000014900F0A9B800BF9D4B0008002310B583
:104C0000044603604360836081814366C28103611F
:104C100043618361194608225C30FFF7FEFB054BB8
:104C20006362054BA362054BE362054B2462236379
:104C300010BD00BF41480008634800089B480008B9
:104C4000BF48000870B54A1E682555430E4605F159
:104C50007401FFF739FC044640B1002180E84200AE
:104C60000C30A06005F16802FFF7D7FB204670BD4D
:104C7000836910B5044633BB8364C3640365124B78
:104C8000124A1B688262984204BF0123836100F0CC
:104C90001FF86060204600F01BF8A060204600F07E
:104CA00017F80022E06004216068FFF7A7FF0122E7
:104CB0000921A068FFF7A2FF02221221E068FFF796
:104CC0009DFF0123A36110BDD4590008F14B0008DA
:104CD000F8B51C4B1E68B369074613B93046FFF799
:104CE000C7FF4836B4687368013B03D5336833B1F6
:104CF0003668F7E7B4F90C506DB16834F4E7042175
:104D00003846FFF79FFF30600028F1D10C233B604D
:104D100004462046F8BD4FF6FF73E3810123A381CB
:104D200065662560A560656025616561A5610822ED
:104D3000294604F15C00FFF770FB6563A563A56479
:104D4000E564E6E7D45900082DE9F8438046894632
:104D500000F14804002614B93046BDE8F883A56880
:104D60006768013F01D52468F5E7AB89012B07D9B6
:104D7000B5F90E30013303D029464046C8470643F3
:104D80006835EEE738B5074C05460846114600225F
:104D900022601A46FBF72FFF431C02D1236803B1A0
:104DA0002B6038BD240A002070B50E46B1F90E10F4
:104DB000002990B014461D4607DA00232B60B38902
:104DC0001A0610D44FF480630EE001AA00F08AFCAA
:104DD0000028F2DB029A02F47042A2F500535A4214
:104DE0005A412A60EEE740230020236010B070BDD6
:104DF0008B8973B59D0706460C4607D504F147031A
:104E0000236023610123636102B070BD01AB6A4678
:104E1000FFF7CAFF009905463046FFF755FB48B932
:104E2000B4F90C309A05EFD423F0030343F00203E6
:104E3000A381E3E70D4BB362A389206043F08003B5
:104E4000A381009B6361019B20615BB1B4F90E10EB
:104E5000304600F059FC28B1A38923F0030343F046
:104E60000103A381A3891D43A581CDE7F14B000870
:104E7000704770472DE9F0478E689E4282460C4687
:104E80009146984635D88A8912F4906F31D02568BA
:104E900009696F1A6569022305EB450595FBF3F572
:104EA00008F101033B449D4238BF1D46530531D5EF
:104EB0002946FFF709FB064650B90C23CAF8003013
:104EC000A38943F04003A3814FF0FF30BDE8F08792
:104ED0003A462169FFF796FAA38923F4906343F0D9
:104EE0008003A381266165613E44ED1B2660A560B9
:104EF0004646464528BF464632464946206800F0A9
:104F000013FCA3689B1BA36023681E44266000203B
:104F1000BDE8F0872A4600F021FC06460028E1D1D2
:104F200021695046FFF782FAC7E700002DE9F04FEC
:104F30009DB0804603938B891C060D4616460FD5FF
:104F40000B696BB94021FFF7BFFA2860286128B9C7
:104F50000C23C8F800304FF0FF30C5E040236B61F0
:104F60000023099320238DF8293030238DF82A302F
:104F70004FF0010B37463C4614F8013B002B3CD167
:104F8000B7EB060A0BD05346324629464046FFF798
:104F900071FF013000F0A380099B534409933B78D3
:104FA000002B00F09C8000234FF0FF320493079306
:104FB000059206938DF853301A93052221785048B4
:104FC000FBF716F9671C049BD8B9D90644BF202209
:104FD0008DF853201A0744BF2B228DF853202278D6
:104FE0002A2A16D0079A00210A20274601343B7846
:104FF000303B092B51D9C9B111E0252BC0D0274630
:10500000B9E73F4A801A0BFA00F0184304903C4677
:10501000D3E7039A111D12680391002A01DB07925E
:1050200004E0524243F00203079204933B782E2B94
:105030000ED17B782A2B07F1010132D1039B1A1D77
:105040001B680392002BB8BF4FF0FF330237059364
:105050002C4C397803222046FBF7CAF838B140239C
:10506000001B03FA00F0049B0343049301373978D3
:1050700025488DF8281006227E1CFBF7B9F8002879
:1050800035D0224BFBB9039B073323F007030833CA
:105090000393099B4B4409936CE700FB0232012107
:1050A000A3E70023059318460A240F4601313A78F6
:1050B000303A092A03D9002BCAD00590C8E704FB6F
:1050C00000200123F1E703AB00932A46104B04A90B
:1050D0004046AFF30080B0F1FF3F8146D9D1AB89A4
:1050E0005B063FF538AF09981DB0BDE8F08F03AB04
:1050F00000932A46064B04A9404600F0C1F9EAE7AE
:10510000385A00083E5A0008425A000800000000C1
:10511000754E00089368013B002B10B4936009DAC8
:105120009469A34202DBCBB20A2B03D15DF8044B96
:10513000FFF7CABB1368581C10601970C8B25DF83D
:10514000044B7047F8B506460F461446D518AC42D6
:1051500001D1002007E03A4614F8011B3046FFF762
:10516000D9FF431CF3D1F8BD2DE9F04F9DB00C469B
:1051700017460393064618B183690BB9FFF778FD0C
:105180007C4B9C4257D17468A38918075DD523696D
:10519000002B5AD00023099320238DF82930302387
:1051A0008DF82A304FF0010BB846454615F8013B03
:1051B000002B55D1B8EB070A0BD053463A4621468F
:1051C0003046FFF7BFFF013000F0C480099B534415
:1051D000099398F80030002B00F0BC8000234FF0BA
:1051E000FF3204930793059206938DF853301A9378
:1051F000052229786048FAF7FBFF05F10108049BB6
:10520000002831D1D90644BF20228DF853201A0737
:1052100044BF2B228DF853202A782A2A2CD0079AB3
:1052200000210A20A846013598F80030303B092BB0
:105230006DD971B326E0514B9C4201D1B468A3E70C
:105240004F4B9C4208BFF4689EE721463046FFF76B
:105250009FFB00289ED04FF0FF301DB0BDE8F08FBF
:10526000252BA7D0A846A0E7434A801A0BFA00F0E6
:10527000184304904546BBE7039A111D1268039139
:10528000002A01DB079204E0524243F00203079236
:10529000049398F800302E2B10D198F801302A2B67
:1052A00008F1010137D1039B1A1D1B680392002BE3
:1052B000B8BF4FF0FF3308F102080593314D98F85D
:1052C000001003222846FAF793FF40B14023401B09
:1052D00003FA00F0049B0343049308F1010898F8D3
:1052E000001029488DF82810062208F10107FAF766
:1052F0007FFF002834D0254B03BB039B073323F0EB
:10530000070308330393099B4B4409934CE700FBC5
:105310000232012186E70023059318460A258846B4
:10532000013198F80020303A092A03D9002BC5D062
:105330000590C3E705FB00200123F0E703AB0093D2
:105340002246134B04A93046AFF30080B0F1FF3F73
:105350008146D8D1A3895B063FF57DAF09987CE7EC
:1053600003AB009322460A4B04A9304600F088F8AC
:10537000ECE700BFF8590008385A0008185A00082E
:10538000D85900083E5A0008425A000800000000A0
:10539000455100082DE9F04791461F468A680B6980
:1053A000DDF820809342B8BF1346C9F8003091F869
:1053B000432006460C4612B10133C9F80030236879
:1053C000990642BFD9F800300233C9F80030256889
:1053D00015F0060507D104F1190AE368D9F8002091
:1053E0009B1A9D4229DB94F843302268003318BF92
:1053F000012392062ED404F1430239463046C047B9
:10540000013021D02368E568D9F8002003F00603B5
:10541000042B08BFAD1AA36822690CBF25EAE57505
:1054200000259342C4BF9B1AED184FF000091A34AF
:105430004D451BD10020BDE8F08701235246394677
:105440003046C047013003D14FF0FF30BDE8F08750
:105450000135C2E7E1185A1C302081F8430022448C
:1054600094F8451082F843100233C4E70123224622
:1054700039463046C0470130E6D009F10109D7E787
:105480002DE9F04317460A7E85B06E2A98460646F7
:105490000C460C9B01F1430E00F0BC801AD8632A25
:1054A0002ED00AD8002A00F0C880582A00F08A803E
:1054B00004F1420584F842202AE0642A01D0692AD6
:1054C000F6D121681A6811F0800F23D0111D1960E0
:1054D000136827E0732A00F0B48008D86F2A2AD016
:1054E000702AE5D10A6842F020020A6003E0752ABA
:1054F00021D0782ADCD1782284F845206E4964E0F6
:105500001A6801F14205111D1960136884F84230D0
:105510000123A3E011F0400F02F104011960D7D07C
:10552000B2F90030002B03DA2D225B4284F84320CD
:1055300062490A2217E02068196810F0800F03D032
:10554000081D18600B6806E010F0400F01F1040020
:105550001860F7D00B8859496F2A14BF0A22082215
:10556000002084F843006568A560002DC0F29C808F
:10557000206820F004002060002B3FD1002D40F077
:1055800095807546082A0BD12368DA0708D5236968
:1055900062689A42DEBF302305F8013C05F1FF3511
:1055A000AEEB05032361CDF800803B4603AA2146FC
:1055B0003046FFF7EFFE013055D14FF0FF3005B018
:1055C000BDE8F08381F845203C492268186812F054
:1055D000800F00F104051D6001D0036802E055064C
:1055E000FBD50388D00744BF42F0200222601BB9DC
:1055F000226822F0200222601022B1E77546B3FB38
:10560000F2F002FB1033CB5C05F8013D03460028A5
:10561000F5D1B7E708681A68496910F0800F04D01F
:10562000101D18601368196007E010F0400F02F1B8
:10563000040018601368F6D01980002323617546B2
:10564000B1E71A68111D19601568626800212846C3
:10565000FAF7CEFD08B1401B606063682361002348
:1056600084F843309FE723692A4639463046C047CD
:105670000130A2D023689B0707D5002504F1190942
:10568000E368039A9B1A9D4205DBE068039B9842FE
:10569000B8BF184693E701234A4639463046C0470B
:1056A00001308AD00135EBE7002BA7D10B7884F8C5
:1056B000423004F1420565E75A5A0008495A000889
:1056C00038B5074C054608461146002222601A46A6
:1056D000FBF7A2FA431C02D1236803B12B6038BD4B
:1056E000240A002038B5074C002305460846114619
:1056F0002360FBF7B9FA431C02D1236803B12B6086
:1057000038BD00BF240A002038B5064C00230546EA
:1057100008462360FBF716FA431C02D1236803B145
:105720002B6038BD240A0020884210B501EB02032B
:1057300003D8421E99420CD110BD9842F9D281186B
:10574000D21AD34200D110BD13F8014D01F8014D1A
:10575000F7E711F8014B02F8014FEBE7F8B5074600
:1057600014460E4621B91146BDE8F840FEF7ACBE1E
:1057700022B9FEF75BFE25462846F8BD00F014F876
:1057800084420FD921463846FEF79EFE0546002882
:10579000F2D031462246FEF735FE31463846FEF756
:1057A00045FEE9E73546E7E751F8040C0028A0F18B
:1057B0000400BCBF0B58C01870470000044B1968A8
:1057C000024609B903491960186802441A60704713
:1057D000FC000020280A0020F8B500BFF8BC08BC77
:1057E0009E467047F8B500BFF8BC08BC9E4670479F
:1057F000573535303020696E697469616C697A6536
:1058000064206661696C2E0D000000000202020235
:1058100002020202020202020202020253797374BD
:10582000656D2073746172742E0D000043726561A2
:1058300074696E6720736F636B65742E2E2E0D0076
:10584000736F636B65742829206661696C65642CCD
:1058500020636F6465203D2025640D0A0000000070
:10586000536F636B657420637265617465642C208B
:10587000636F6E6E656374696E672E2E2E0D000069
:105880006C697374656E2829206661696C65642C87
:1058900020636F6465203D2025640D0A0000000030
:1058A0006C697374656E2829204F4B0D0000000051
:1058B000496E70757420636F6E6E656374696F6E88
:1058C0000D0000004572726F7220736F636B657418
:1058D000207374617475730D0000000049503A2004
:1058E0002025642E25642E25642E25640D0A0000D3
:1058F000696E70757420636F6E6E656374696F6E28
:10590000206E72202D20256400000000436C6F7310
:10591000696E6720736F636B65742E0D0000000065
:105920004D616320616464726573733A202530327F
:10593000783A253032783A253032783A2530327844
:105940003A253032783A253032780A0D00000000CE
:1059500049502061646472657373203A2025642E77
:1059600025642E25642E25640A0D0000534E204D1B
:1059700061736B203A2025642E25642E25642E2524
:10598000640A0D004761746520776179203A20250B
:10599000642E25642E25642E25640A0D0000000067
:1059A000444E5320536572766572203A2025642E4A
:1059B00025642E25642E25640A0D000000000000D9
:1059C00000000000010203040607080900000000AF
:1059D0000102030454000020000000000000000049
:1059E00000000000000000000000000000000000B7
:1059F00000000000000000000000000000000000A7
:105A00000000000000000000000000000000000096
:105A10000000000000000000000000000000000086
:105A20000000000000000000000000000000000076
:105A30000000000000000000232D302B2000686CC7
:105A40004C006566674546470030313233343536A1
:105A500037383941424344454600303132333435DA
:0C5A600036373839616263646566000007
:085A6C0054A8FF7F01000000B7
:045A7400C501000860
:045A7800A101000880
:105A7C000008DC789171C0A8B11BFFFFFF00C0A823
:105A8C00B1010000000001000024F400100000002F
:105A9C00010000C001025735353030000000000015
:105AAC00213A00082F3A00083D3A00084B3A00080A
:105ABC00593A0008733A000800000000000000008A
:105ACC005400002000000000F8590008185A000883
